:100000000C9463000C948B000C948B000C946B0587
:100010000C946B050C946B050C948B000C948B006A
:100020000C948B000C948B000C948B000C948B0024
:100030000C948B000C948B000C948B000C948B0014
:100040000C94C9040C948B000C9439050C94130582
:100050000C948B000C948B000C948B000C948B00F4
:100060000C948B000C948B000000000024002700EF
:100070002A0000000008000201000003040700003D
:1000800000000000000000000000230026002900FE
:1000900000000000250028002B00040404040404D0
:1000A0000404020202020202030303030303010227
:1000B00004081020408001020408102001020408F6
:1000C00010202A06640911241FBECFEFD8E0DEBF3E
:1000D000CDBF22E0A0E5B1E001C01D92A738B20774
:1000E000E1F711E0A0E0B1E0E2E1FBE102C0059040
:1000F0000D92A035B107D9F710E0C2E6D0E004C0F8
:100100002197FE010E947A0BC136D107C9F70E94E0
:1001100036070C947C0D0C94000090E0FC01EE5826
:10012000FF4F2491FC01E255FF4F3491FC01E6564C
:10013000FF4FE491EE2309F43CC0222339F1233030
:1001400091F038F42130A9F0223001F584B58F7D8B
:1001500012C0273091F02830A1F02430B9F48091FA
:1001600080008F7D03C0809180008F778093800016
:100170000DC084B58F7784BD09C08091B0008F77A2
:1001800003C08091B0008F7D8093B000F0E0EE0F4F
:10019000FF1FE057FF4FA591B4919FB7F8946111ED
:1001A00004C08C913095382302C0EC913E2B3C93D7
:1001B0009FBF0895CF93DF9390E0FC01E255FF4F7E
:1001C0002491FC01E656FF4F8491882361F190E071
:1001D000880F991FFC01E859FF4FC591D491FC018C
:1001E000E057FF4FA591B491611109C09FB7F894F2
:1001F0008881209582238883EC912E230BC0623066
:1002000061F49FB7F8948881322F309583238883D7
:10021000EC912E2B2C939FBF06C08FB7F894E881EA
:100220002E2B28838FBFDF91CF9108953FB7F8948D
:1002300080919B0190919C01A0919D01B0919E01A4
:1002400026B5A89B05C02F3F19F00196A11DB11D31
:100250003FBFBA2FA92F982F8827820F911DA11D6C
:10026000B11DBC01CD0142E0660F771F881F991FA9
:100270004A95D1F708958F929F92AF92BF92CF92F5
:10028000DF92EF92FF926B017C010E9416014B01FD
:100290005C01C114D104E104F104F1F00E941601E3
:1002A000DC01CB0188199909AA09BB09883E934052
:1002B000A105B10570F321E0C21AD108E108F108E7
:1002C00088EE880E83E0981EA11CB11CC114D104D5
:1002D000E104F10419F7DDCFFF90EF90DF90CF90AC
:1002E000BF90AF909F908F900895CF92DF92EF9242
:1002F000FF920F931F93CF93DF936C017A018B01D1
:10030000C0E0D0E0CE15DF0581F0D8016D918D0100
:10031000D601ED91FC910190F081E02DC601099587
:10032000892B11F02196EECF7E01C701DF91CF918D
:100330001F910F91FF90EF90DF90CF900895FC01F7
:10034000538D448D252F30E0842F90E0821B930B3A
:10035000541710F0CF96089501970895FC01918DE0
:10036000828D981761F0828DDF01A80FB11D5D9617
:100370008C91928D9F5F9F73928F90E008958FEF85
:100380009FEF0895FC01918D828D981731F0828D39
:10039000E80FF11D858D90E008958FEF9FEF089590
:1003A000FC01918D228D892F90E0805C9F4F821BF4
:1003B00091098F73992708958FE991E00E94D001E8
:1003C00021E0892B09F420E0822F0895FC01848D1F
:1003D000DF01A80FB11DA35ABF4F2C91848D90E06F
:1003E00001968F739927848FA689B7892C93A0894A
:1003F000B1898C91837080648C93938D848D9813D4
:1004000006C00288F389E02D80818F7D8083089566
:10041000EF92FF920F931F93CF93DF93EC0181E054
:10042000888F9B8D8C8D981305C0E889F989808110
:1004300085FD26C0F62E0B8D10E00F5F1F4F0F734A
:100440001127E02E8C8DE8120CC00FB607FCFACFF6
:10045000E889F989808185FFF5CFCE010E94E60108
:10046000F1CF8B8DFE01E80FF11DE35AFF4FF082B3
:100470009FB7F8940B8FEA89FB89808180620AC05C
:100480009FB7F894EE89FF896083E889F9898081B4
:100490008370806480839FBF81E090E0DF91CF9183
:1004A0001F910F91FF90EF900895CF93DF93EC0190
:1004B000888D8823C9F0EA89FB89808185FD05C084
:1004C000A889B9898C9186FD0FC00FB607FCF5CFBE
:1004D000808185FFF2CFA889B9898C9185FFEDCF06
:1004E000CE010E94E601E7CFDF91CF91089580E031
:1004F00090E0892B29F00E94DC0181110C9400000E
:100500000895CF93DF93EC0160E08E810E948D000F
:1005100061E08E810E948D0060E08E810E948D00DE
:100520008BE891E00197F1F7DF91CF910895CF9299
:10053000DF92EF92FF920F931F93CF93DF936C01A3
:100540007C0187E0E80EF11CC0E0D0E0062F10E04F
:10055000B8010C2E02C0759567950A94E2F7617098
:10056000F70181917F010E948D002196C430D10551
:1005700079F7C601DF91CF911F910F91FF90EF9016
:10058000DF90CF900C948102CF92DF92EF92FF9296
:100590000F931F93CF93DF93EC01F62E642F8C8182
:1005A0000E948D008D818F3F19F060E00E948D00C8
:1005B0008F850F2D10E084FF25C06E0187E0C80EE7
:1005C000D11CE12CF12CB8010E2C02C07595679559
:1005D0000A94E2F76170F60181916F010E948D002B
:1005E000FFEFEF1AFF0A88E0E816F10461F7CE0189
:1005F000DF91CF911F910F91FF90EF90DF90CF90FF
:100600000C948102B80184E0759567958A95E1F7AD
:10061000CE010E9497026F2DCE01DF91CF911F91E5
:100620000F91FF90EF90DF90CF900C949702CF93B3
:10063000DF93823028F090914B02986090934B02A8
:1006400080934F021092500280E48093510280E127
:100650008093520280E58093530261E080914002D2
:100660000E94DA00809141028F3F19F061E00E9400
:10067000DA0061E0809142020E94DA00CCE3D2E02D
:100680009E012C53324080914B0284FD03C084E0D4
:1006900090E002C088E090E02196281739072CF4FA
:1006A00061E08E810E94DA00EBCF8BE39DE0019741
:1006B000F1F760E0809140020E948D0060E080913F
:1006C00042020E948D00809141028F3F19F060E04C
:1006D0000E948D0060914B0264FD20C063E08CE3BA
:1006E00092E00E949702CBE4D6E4CE010197F1F7A5
:1006F00063E08CE392E00E9497022197F1F763E0B8
:100700008CE392E00E94970283E592E00197F1F773
:1007100062E08CE392E00E9497021EC0606240E0BB
:100720008CE392E00E94C4028BE496E40197F1F717
:1007300060914B02606240E08CE392E00E94C40250
:1007400083E592E00197F1F760914B02606240E02F
:100750008CE392E00E94C40260914B02606240E030
:100760008CE392E00E94C40284E080934C0240E05B
:100770006CE08CE392E00E94C40240E061E08CE314
:1007800092E00E94C4028BE39FE10197F1F782E0BF
:1007900080934D0240E066E08CE392E0DF91CF91E0
:1007A0000C94C40241E00E94C40281E090E00895EC
:1007B00020919201309193012817390771F490919B
:1007C000900180919101981741F0E0919001F0E043
:1007D000E05BFE4F808190E008958FEF9FEF0895DA
:1007E00008951F93CF93DF93DC015C968D919C91CC
:1007F0005D97009739F421E030E013963C932E93F7
:1008000012973BC05196ED91FC91529750962C91C6
:100810005097322F30951FB75E964C915E97742F8C
:10082000727041FD6095F8944081772311F0422B5E
:1008300001C043234083EC012197F1F748E0508148
:1008400060FF02C0522B01C053235083EC0121975B
:10085000F1F76695415099F78081772319F083234A
:10086000808302C0282B20831FBF5C968D919C91B2
:100870005D970197F1F781E090E0DF91CF911F91B3
:10088000089520919201309193012817390771F44E
:10089000809191012091900190E0805C9F4F821B9C
:1008A000910960E470E00E94520B089580E090E0AE
:1008B0000895209192013091930128173907B9F4D6
:1008C0009091900180919101981789F0E0919001A9
:1008D000F0E0E05BFE4F80812091900130E02F5FDF
:1008E0003F4F2F7333272093900190E008958FEFAF
:1008F0009FEF0895089580E090E00895CF93DF93EF
:10090000009779F0FC0101900020E9F73197AF01E1
:10091000481B590BBC0184E592E00E947501EC0173
:1009200002C0C0E0D0E042E050E066E371E084E560
:1009300092E00E9475018C0F9D1FDF91CF91089569
:100940000E94670D0F931F93CF93DF93EC01888173
:100950009981009729F02A813B812617370788F46F
:100960008B016F5F7F4F0E94A10C009761F099830C
:1009700088831B830A832C813D81232B11F4FC0186
:10098000108281E001C080E0DF91CF911F910F9133
:1009900008951F920F920FB60F9211242F933F9339
:1009A0008F939F93AF93BF938091970190919801FC
:1009B000A0919901B0919A013091960123E0230F03
:1009C0002D3720F40196A11DB11D05C026E8230F87
:1009D0000296A11DB11D20939601809397019093DB
:1009E0009801A0939901B0939A0180919B019091F5
:1009F0009C01A0919D01B0919E010196A11DB11D88
:100A000080939B0190939C01A0939D01B0939E01C4
:100A1000BF91AF919F918F913F912F910F900FBEFA
:100A20000F901F9018951F920F920FB60F921124DE
:100A30002F933F934F935F936F937F938F939F93E6
:100A4000AF93BF93EF93FF938FE991E00E94E6018C
:100A5000FF91EF91BF91AF919F918F917F916F9196
:100A60005F914F913F912F910F900FBE0F901F906C
:100A700018951F920F920FB60F9211242F938F93F8
:100A80009F93EF93FF93E091AF01F091B0018081CC
:100A9000E091B501F091B60182FD12C09081809184
:100AA000B8018F5F8F732091B901821751F0E091E7
:100AB000B801F0E0E156FE4F958F8093B80101C078
:100AC0008081FF91EF919F918F912F910F900FBE99
:100AD0000F901F9018951F920F920FB60F9211242E
:100AE0002F933F934F935F936F937F938F939F9336
:100AF000AF93BF93EF93FF93E0919201F091930135
:100B0000309709F451C0968DA685B785858591FFEC
:100B100004C09C91892329F447C09C91892309F042
:100B200043C0A389B4899C918589809589238C933E
:100B3000868997890197F1F7608D718DA685B785B4
:100B4000558538E020E0CB010197F1F7822F90E046
:100B500095958795282F4C91452309F020683150B1
:100B600091F7868D81FD20958091910190E001960D
:100B70008F73992730919001381749F0A091910116
:100B8000B0E0A05BBE4F2C938093910103C0868D93
:100B90008160868F828D938D0197F1F7A389B48947
:100BA0009C918589892B8C93FF91EF91BF91AF9197
:100BB0009F918F917F916F915F914F913F912F9175
:100BC0000F900FBE0F901F901895CF92DF92EF926B
:100BD000FF920F931F93E82FF92F05C001501109C1
:100BE0002109310961F1908196239417B9F305C069
:100BF000015011092109310911F1908196239413B3
:100C0000F7CFC12CD12CE12CF12C0AC08FEFC81AE0
:100C1000D80AE80AF80A0C151D052E053F0579F0DB
:100C200080818623841791F36C2D7D2D8E2D9F2D31
:100C30001F910F91FF90EF90DF90CF90089560E0AB
:100C400070E080E090E01F910F91FF90EF90DF90B7
:100C5000CF900895CF92DF92EF92FF921092A2016F
:100C60001092A10198EEC92E93E0D92EE12CF12C1F
:100C7000C092A301D092A401E092A501F092A60136
:100C80008AE091E09093A00180939F0185EC90E031
:100C90009093AC018093AB0184EC90E09093AE0113
:100CA0008093AD0180EC90E09093B0018093AF0110
:100CB00081EC90E09093B2018093B10182EC90E0DE
:100CC0009093B4018093B30186EC90E09093B601C9
:100CD0008093B5011092B8011092B9011092BA0137
:100CE0001092BB0161E084E00E94DA0060E085E0E0
:100CF0000E94DA0084E090E0909374028093730283
:100D000085E090E0909376028093750285E89CEFF1
:100D1000ACEDB1E48093770290937802A0937902CE
:100D2000B0937A028CE993E5ACE8B2E480937B025D
:100D300090937C02A0937D02B0937E0210925702A2
:100D400010925602C0925802D0925902E0925A0272
:100D5000F0925B0288E291E09093550280935402F6
:100D600010926B0210926A0210926D0210926C0245
:100D700010926F0210926E02109271021092700225
:100D8000609172026E7F6D7F6093720266956170F2
:100D900081E0682783E00E948D0061E083E00E948B
:100DA000DA00E1EBF0E0E491E0936402EDE9F0E0D9
:100DB000E491F0E0EE0FFF1FE057FF4F8591949113
:100DC000909366028093650260E082E00E94DA0000
:100DD0008091720281FD04C061E082E00E948D007A
:100DE00082E080936002E0EBF0E0E491E093610246
:100DF000ECE9F0E0E491F0E0EE0FFF1FEA57FF4F5F
:100E000085919491909363028093620210923F02C5
:100E100010923E028CE191E090933D0280933C025F
:100E20008CE0809340028FEF809341028BE08093AF
:100E300042028AE08093430289E08093440288E082
:100E40008093450287E080934602109247021092F9
:100E500048021092490210924A0210924B0281E01D
:100E6000FF90EF90DF90CF900C941703CF93DF9318
:100E7000CDB7DEB728970FB6F894DEBF0FBECDBF53
:100E8000789484B5826084BD84B5816084BD85B565
:100E9000826085BD85B5816085BD80916E00816071
:100EA00080936E0010928100809181008260809317
:100EB0008100809181008160809381008091800019
:100EC0008160809380008091B10084608093B10044
:100ED0008091B00081608093B00080917A0084603E
:100EE00080937A0080917A00826080937A0080916A
:100EF0007A00816080937A0080917A008068809384
:100F00007A001092C100E091AF01F091B00182E04F
:100F10008083E091AB01F091AC011082E091AD01D2
:100F2000F091AE018FEC80831092B701E091B30194
:100F3000F091B40186E08083E091B101F091B201BB
:100F4000808180618083E091B101F091B201808164
:100F500088608083E091B101F091B2018081806866
:100F60008083E091B101F091B20180818F7D808317
:100F700061E086E00E94DA0010926F0210926E0229
:100F800010926D0210926C0210926B0210926A0223
:100F90008DE991E0909371028093700290916002CC
:100FA000963108F058C02DEB30E030936B0220935F
:100FB0006A022BE931E030936D0220936C022CE23F
:100FC00031E030936F0220936E02409168009830B8
:100FD00058F031E09E3008F430E021E0822F01C06B
:100FE000880F3A95EAF701C084E0842B809368006B
:100FF000983038F09E3040F0963148F020E030E0F4
:1010000008C02DE630E005C02BE630E002C02CE63B
:1010100030E03093680220936702983030F481E02A
:1010200001C0880F9A95EAF70EC0292F30E09E3054
:1010300018F42850310902C02E50310981E001C056
:10104000880F2A95EAF78093690280917002909147
:1010500071020197F1F780916E0290916F02892BD6
:1010600049F1E0919201F091930182E0E435F807B3
:1010700009F1309739F0A389B4899C9185898095CD
:1010800089238C93809172028E7F809372021092DA
:1010900091011092900184E592E0909393018093E6
:1010A0009201E0916702F09168029081809169025B
:1010B000892B808382E00E94170393E0E92EF12CB4
:1010C00023E2C22ED12C3BE3A32E3FE1B32E60E0FE
:1010D000809173020E948D00C7010197F1F761E0D2
:1010E000809173020E948D00C6010197F1F760E0C4
:1010F000809173020E948D0080917502909176021A
:101100009927FC01E255FF4F6491FC01E656FF4F21
:10111000E491F0E0EE0FFF1FEA57FF4F85919491A5
:1011200000E412E42FE030E0462F0E94E50561154F
:1011300071058105910549F0DC01CB010196A11DE6
:10114000B11DBC01CD019F7003C060E070E0CB0118
:101150000E948709209177023091780240917902AC
:1011600050917A020E94DB0A20E030E040E05FE329
:101170000E94E6092B013C0120E030E040E751E409
:101180000E94800918166CF080919501811109C0A8
:101190008091940191E08927809394019093950127
:1011A0000CC020E030E040E751E4C301B2010E94EE
:1011B0004D0B181614F41092950180919401882318
:1011C00031F089E391E00E947E0461E005C084E48F
:1011D00091E00E947E0460E086E00E948D0084E53C
:1011E00092E00E944104892B09F465C064E670E036
:1011F00080E090E00E943B0140E061E08CE392E0FF
:101200000E94C402C5010197F1F71A8219821C825B
:101210001B821E821D8260E070E0CE0101960E945A
:10122000A20429813A8181110DC02115310519F0DF
:10123000C9010E94180C1A8219821E821D821C820A
:101240001B8207C01E821D8268E371E0C9010E94F3
:10125000750D84E592E00E94410418161906FCF40D
:1012600084E592E00E9459048F8318860D811E81C7
:101270000F5F1F4FB801CE0101960E94A204882380
:1012800041F329813A818D819E81BE01695F7F4F43
:10129000820F931F0E94750D1E830D83DACF4D813F
:1012A0005E8169817A818CE392E00E947501898177
:1012B0009A810E94180C68E572E080E090E00E943C
:1012C0003B010E94770203CF88E291E090935502A0
:1012D00080935402809192019091930184559240A1
:1012E00071F4E0916702F091680290818091690247
:1012F0008095892380831092930110929201089522
:101300000E94C20908F481E00895E89409C097FB9F
:101310003EF490958095709561957F4F8F4F9F4FCC
:101320009923A9F0F92F96E9BB279395F695879510
:1013300077956795B795F111F8CFFAF4BB0F11F4D3
:1013400060FF1BC06F5F7F4F8F4F9F4F16C088237A
:1013500011F096E911C0772321F09EE8872F762FB0
:1013600005C0662371F096E8862F70E060E02AF0F1
:101370009A95660F771F881FDAF7880F96958795DD
:1013800097F90895990F0008550FAA0BE0E8FEEFB2
:1013900016161706E807F907C0F012161306E40739
:1013A000F50798F0621B730B840B950B39F40A2632
:1013B00061F0232B242B252B21F408950A2609F410
:1013C000A140A6958FEF811D811D08950E94F90906
:1013D0000C946A0A0E945C0A38F00E94630A20F0AA
:1013E000952311F00C94530A0C94590A11240C946F
:1013F0009E0A0E947B0A70F3959FC1F3950F50E0FF
:10140000551F629FF001729FBB27F00DB11D639FB6
:10141000AA27F00DB11DAA1F649F6627B00DA11D5C
:10142000661F829F2227B00DA11D621F739FB00D02
:10143000A11D621F839FA00D611D221F749F332772
:10144000A00D611D231F849F600D211D822F762F0B
:101450006A2F11249F5750409AF0F1F088234AF0E8
:10146000EE0FFF1FBB1F661F771F881F9150504054
:10147000A9F79E3F510580F00C94530A0C949E0AE4
:101480005F3FE4F3983ED4F3869577956795B795DB
:10149000F795E7959F5FC1F7FE2B880F911D9695F5
:1014A000879597F9089597F99F6780E870E060E065
:1014B00008959FEF80EC089500240A9416161706ED
:1014C00018060906089500240A9412161306140635
:1014D00005060895092E0394000C11F4882352F098
:1014E000BB0F40F4BF2B11F460FF04C06F5F7F4F50
:1014F0008F4F9F4F089557FD9058440F551F59F037
:101500005F3F71F04795880F97FB991F61F09F3FF0
:1015100079F087950895121613061406551FF2CF19
:101520004695F1DF08C0161617061806991FF1CF69
:1015300086957105610508940895E894BB27662790
:101540007727CB0197F908952F923F924F925F92A0
:101550006F927F928F929F92AF92BF92CF92DF92C3
:10156000EF92FF920F931F93CF93DF93CDB7DEB728
:10157000CA1BDB0B0FB6F894DEBF0FBECDBF0994BC
:101580002A88398848885F846E847D848C849B8413
:10159000AA84B984C884DF80EE80FD800C811B8121
:1015A000AA81B981CE0FD11D0FB6F894DEBF0FBE50
:1015B000CDBFED0108950E94EF0A0C946A0A0E94C3
:1015C000630A58F00E945C0A40F029F45F3F29F05A
:1015D0000C94530A51110C949E0A0C94590A0E94BF
:1015E0007B0A68F39923B1F3552391F3951B550BAF
:1015F000BB27AA2762177307840738F09F5F5F4FE6
:10160000220F331F441FAA1FA9F335D00E2E3AF024
:10161000E0E832D091505040E695001CCAF72BD03C
:10162000FE2F29D0660F771F881FBB1F261737078D
:101630004807AB07B0E809F0BB0B802DBF01FF27BF
:1016400093585F4F3AF09E3F510578F00C94530A3F
:101650000C949E0A5F3FE4F3983ED4F38695779509
:101660006795B795F7959F5FC9F7880F911D969578
:10167000879597F90895E1E0660F771F881FBB1FD4
:10168000621773078407BA0720F0621B730B840B81
:10169000BA0BEE1F88F7E09508950E94C20908F47E
:1016A0008FEF089597FB072E16F4009407D077FD6F
:1016B00009D00E94660B07FC05D03EF490958195F9
:1016C0009F4F0895709561957F4F0895AA1BBB1B8E
:1016D00051E107C0AA1FBB1FA617B70710F0A61B32
:1016E000B70B881F991F5A95A9F780959095BC0153
:1016F000CD010895EE0FFF1F0590F491E02D0994A0
:101700000F931F93CF93DF938230910510F482E003
:1017100090E0E0918502F091860220E030E0A0E0C8
:10172000B0E0309719F1408151810281138148174F
:101730005907C8F08417950769F4109731F012968D
:101740000C93129713961C9327C000938502109355
:10175000860222C02115310519F04217530718F4EB
:101760009A01BD01EF01DF01F801DBCF2115310541
:10177000F9F0281B390B2430310580F48A819B81D4
:101780006115710521F0FB019383828304C090935E
:10179000860280938502FE01329644C0FE01E20F6C
:1017A000F31F8193919322503109398328833AC0E2
:1017B0002091830230918402232B41F42091020175
:1017C0003091030130938402209383022091000121
:1017D000309101012115310541F42DB73EB74091FB
:1017E000040150910501241B350BE0918302F09117
:1017F0008402E217F307A0F42E1B3F0B28173907CA
:1018000078F0AC014E5F5F4F2417350748F04E0F5C
:101810005F1F50938402409383028193919302C08F
:10182000E0E0F0E0CF01DF91CF911F910F9108959B
:10183000CF93DF93009709F481C0FC0132971382A4
:101840001282A0918502B0918602109781F42081C6
:101850003181820F931F20918302309184022817D7
:10186000390751F5F0938402E093830267C0ED01DC
:1018700020E030E0CE17DF0740F44A815B819E0113
:1018800041155105F1F0EA01F5CFD383C2834081C0
:101890005181840F951FC817D90759F48881998100
:1018A000840F951F0296918380838A819B81938305
:1018B00082832115310529F4F0938602E093850295
:1018C0003DC0E901FB83EA8349915991C40FD51FBB
:1018D000EC17FD0761F480819181840F951F0296BA
:1018E000E90199838883828193819B838A83E0E0E5
:1018F000F0E012968D919C911397009719F0FD01DD
:10190000DC01F7CF8D919C9111979D012E5F3F4F88
:10191000820F931F20918302309184022817390788
:1019200069F4309729F4109286021092850202C061
:1019300013821282B0938402A0938302DF91CF912D
:101940000895A0E0B0E0E7EAFCE00C94A80AEC01FE
:10195000009721F4CB010E94800BB4C0FC01E60F7C
:10196000F71F9C0122503109E217F30708F4A8C0C1
:10197000D9010D911C91119706171707B0F005308A
:10198000110508F49BC0C80104978617970708F44F
:1019900095C002501109061B170B019311936D930B
:1019A0007C93CF010E94180C89C05B01A01AB10A78
:1019B0004C01800E911EA0918502B0918602612C8F
:1019C000712CE12CF12C109709F446C08D919C915B
:1019D0001197A815B905B1F56C0142E0C40ED11CF0
:1019E000CA14DB0478F14C018A189B08640142E0B8
:1019F000C40ED11C1296BC9012971396AC91B5E010
:101A0000CB16D10440F0B282A38391828082D901A7
:101A10006D937C9309C00E5F1F4F800F911FF901DA
:101A200091838083EB2DFA2FE114F10431F0D7017B
:101A30001396FC93EE93129741C0F0938602E093C5
:101A400085023CC06816790608F43C017D011296B7
:101A50000D90BC91A02DB7CF80918302909184020C
:101A600088169906E1F466167706C8F4809100019D
:101A700090910101009741F48DB79EB74091040108
:101A800050910501841B950BE817F907C8F4F093F2
:101A90008402E0938302F901718360830FC0CB015C
:101AA0000E94800B7C01009759F0A801BE010E94A2
:101AB0006C0DCE010E94180CC70104C0CE0102C0FB
:101AC00080E090E0CDB7DEB7EEE00C94C40A81E090
:101AD00090E0F8940C947C0DFB01DC0102C00190B5
:101AE0000D9241505040D8F70895FB01DC01019060
:101AF0000D920020E1F7089510E0C2E6D0E004C0A6
:101B0000FE010E947A0B2196C336D107C9F7F894DB
:021B1000FFCF05
:101B120000008702800000000000080275019F019A
:101B22005502D001AE01C20100000000D2037501CE
:101B32007B047A0400000000F10375017B04F003CA
:101B420041045904D8030D0A006D757369635F730C
:101B5200746F70006D757369635F706C61790000FA
:00000001FF
